:020000040800F2
:20000000E0350020DD0200089B2C00087D290008992C0008291E00083935000800000000B5
:20002000000000000000000000000000692F00082920000800000000152D000895300008B8
:20004000F7020008F7020008F7020008F7020008F7020008F7020008F7020008F702000898
:2000600025210008F7020008F7020008F7020008F7020008F7020008F7020008F70200082B
:20008000F7020008F7020008F7020008F7020008F7020008F7020008F70200082D22000802
:2000A000F7020008F5300008F7020008F702000841320008F7020008F7020008F702000892
:2000C000F7020008F7020008F7020008F7020008F70200089D330008F7020008F702000841
:2000E00045200008F7020008F7020008F7020008F7020008F7020008F7020008F70200088C
:20010000F7020008F7020008F7020008F7020008F7020008F7020008F7020008F7020008D7
:20012000F7020008F7020008F7020008F7020008F7020008F7020008F7020008F7020008B7
:20014000F7020008F7020008F7020008F7020008F7020008F7020008F7020008F702000897
:20016000F7020008F7020008F7020008F7020008F7020008F7020008F7020008F702000877
:20018000F7020008F702000800F002F800F092F80AA090E8000C82448344AAF10107DA457C
:2001A00001D100F087F8AFF2090EBAE80F0013F0010F18BFFB1A43F001031847AC3900001B
:2001C000CC390000103A24BF78C878C1FAD8520724BF30C830C144BF04680C6070470000EB
:2001E0000023002400250026103A28BF78C1FBD8520728BF30C148BF0B6070476E2900F04F
:20020000C382702900F01784662903F02A83652903F02783672903F02483612903F02383CE
:2002200003681B0A28BF41F08001692900F07082642900F06D82752900F06A826F2900F0B3
:20024000A583782900F0E383E92900F03F83E42900F03C83F52900F03983EF2900F0A28308
:20026000F82900F0E2830368DB0928BF41F08001632901F0E380732901F0E880E32901F04E
:20028000F380F32901F0F880002070471FB503F0E3FA01F047F904000020002103F0C6FAC2
:2002A000401C60600020002103F0AAFAE0601FBD10B510BD01F008F91146FFF7E7FF03F084
:2002C000FFF901F0E1F903B4FFF7F2FF03BC03F053F90000D0F800D0D0F804F00948804753
:2002E00009480047FEE7FEE7FEE7FEE7FEE7FEE7FEE7FEE7FEE7FEE704480549054A064B3A
:20030000704700009930000889010008E02F0020E0350020E0310020E0310020704753EA09
:20032000020C00F069802DE9F04B4FF00006002B1FBFB3FA83F503FA05F424FA05F65E4065
:2003400012BF1643B2FA82F502FA05F4C5F120051EBF22FA05FC44EA0C04203556EA044C63
:200360004FEA144418BF641C4FF000084FF00009904271EB030C39D3002919BFB1FA81F799
:2003800001FA07F6B0FA80F700FA07F6C7F120071EBF20FA07FC46EA0C062037B6FBF4FC3A
:2003A000A7EB0507103F07F01F0BCBF120060CFA0BFB2CFA06F644BFB3460026202FA4BF4B
:2003C0005E464FF0000B5BEA060C08BF4FF0010B19EB0B09ABFB027C48EB0608C01B06FB6D
:2003E00002CC0BFB03CC71EB0C01C1E70B46024641464846BDE8F08B13B54FF000004FF035
:200400000001AFF30080BDE81C4070471CB50C46064B7B4469460090204600F0CEF9044628
:200420000020694600F0DCF920461CBDCB0300000FB4044910B503AA029800F0D7F910BC73
:200440005DF814FB2800002010B5431C02E010F8011B71B18107FAD14FF0013202C88C1A6F
:200460008C4314EAC211F9D0C01A0A0603D0C01E10BDC01A10BD0A0401D0801E10BD0902AF
:20048000FCD0401E10BD032A40F2308010F0030C00F0158011F8013BBCF1020F624498BFC2
:2004A00011F801CB00F8013B38BF11F8013BA2F1040298BF00F801CB38BF00F8013B11F017
:2004C000030300F02580083AC0F0088051F8043B083A51F804CBA0E80810F5E7121D5CBF5F
:2004E00051F8043B40F8043BAFF30080D20724BF11F8013B11F801CB48BF11F8012B24BFE6
:2005000000F8013B00F801CB48BF00F8012B704710B5203AC0F00B80B1E81850203AA0E8C4
:200520001850B1E81850A0E81850BFF4F5AF5FEA027C24BFB1E81850A0E8185044BF18C98C
:2005400018C0BDE810405FEA827C24BF51F8043B40F8043B08BF7047D20728BF31F8023B01
:2005600048BF11F8012B28BF20F8023B48BF00F8012B70474FF0000200B51346944696461C
:20058000203922BFA0E80C50A0E80C50B1F12001BFF4F7AF090728BFA0E80C5048BF0CC08F
:2005A0005DF804EB890028BF40F8042B08BF704748BF20F8022B11F0804F18BF00F8012B8B
:2005C000704700004FF0013C50F8042B51F8043B9A4221D1A2EB0C03934313EACC1317D1E5
:2005E00050F8042B51F8043B9A4215D1A2EB0C03934313EACC130BD150F8042B51F8043B11
:200600009A4209D1A2EB0C03934313EACC13DBD04FF00000704700BFD01A01BAB1FA81F1B4
:2006200001F0180122FA01F0CB40C1F12001DBB2C0B2C01A2CFA01F3D11A914311EAC31144
:20064000E6D17047704770477047704770B5044685690068C10601D5302600E02026C007AB
:2006600007D070BDD4E9012130469047206A401C20626D1EF6D570BD70B50446856900788A
:20068000C00707D170BDD4E9012120209047206A401C20626D1EF6D570BD09684A0501D517
:2006A00040B27047C905FCD500B2704709684A0501D5C0B27047C905FCD580B2704770B51D
:2006C0000C460546012A05D02878800600D5EA69002302E0012305E05B1C934202D2E05CC5
:2006E0000028F9D1A869E618C01AA861286A184428622846FFF7AAFF04E0D5E9012114F8C1
:20070000010B9047B442F8D32846FFF7B5FF70BD2DE9F0410646002410687529314616A5F1
:2007200010D0FFF7BAFF002802DA404213A507E031688A0701D512A502E0490704D511A58D
:20074000012401E0FFF7B2FF00210A2206F1240709E0B0FBF2FCB0FBF2F302FB1C003030F2
:2007600078541846491C0028F3D123462A463046BDE8F04100F073BA000000002D0000008F
:200780002B0000002000000011680268006A530501D508700AE0D30501D5088006E01306FC
:2007A00003D5C217C1E9000200E008600120704701694A1C02610878704700B58FB0CDE9A8
:2007C00001310021059105497944CDE903101146684600F03BF90FB000BD0000E5FFFFFFD5
:2007E0000A6802F8010B0A6070470000074B70B50D467B44FFF7E1FF0446284600F040FE1B
:2008000010B14FF0FF3070BD204670BD1B2E00002DE9FF5F15468A460446DFF8AC80F84478
:200820000027D8E900103E46CDE9001010E03AF816106A4602A800F027FE411C07D02178F2
:20084000890603D5E269391891420DD80744761C2078800602D5E069B84205DDAE42E6DB35
:200860003AF816000028E2D1A069C01BA0612046FFF7ECFED8E90010CDE90010002017E07C
:200880003AF818106A4602A800F0FEFDB0F1FF3F81460BD000250DF1080B05E0D4E901213E
:2008A0001BF8050090476D1C4D45F7D308F10100B0428046E4DB206A384420622046FFF70F
:2008C000DBFEBDE8FF9F00004A3200002DE9F0418046D21D22F007020025D2E90002F52969
:2008E00015A614D0011E72F1000106DA0023D0EB030063EB020211A608E0D8F800108B07B2
:2009000001D50FA602E0490701D50EA601251146002408F1240704E000F05CF930323A55B1
:20092000641C50EA0102F7D12B46324621464046BDE8F04100F093B9000000002D0000001D
:200940002B0000002000000030B4002100F1240408E002F00705D208303542EA4372DB0845
:200960006554491C52EA0305F3D10468002310A2250708D504F020040C4304D0C46901237B
:200980000CA2641EC46130BC00F069B910B5044621461068FFF78AFE02462046BDE81040F5
:2009A0000023D1E7D21D22F00701D1E90023CBE70000000030000000F0B40D460188090506
:2009C00002D5214C7C4402E01F4C7C440E34002100F1240608E002F00F071209E75D42EA0D
:2009E00003721B097754491C52EA0307F3D102780023120704D5702D06D009B102231134FE
:200A00002246F0BC00F02BB901231034F8E770B504460D4621461068FFF748FE0246294613
:200A20002046BDE870400023C6E7D21D22F00703D3E90023C0E70368126843F020030360FC
:200A40000823C3610023B7E7AC3000002DE9F05F894604464FF0000ADFF874B1FB44C0F8F0
:200A600020A02046E1688847002874D0252806D0D4E901219047206A401C2062F1E700268D
:200A80005F462046E16888472028054607DB312D05D2781910F8200C08B10643F1E7B00733
:200AA00001D526F00406C4F81CA00027C4F818A02A2D09D0284602F058FD38B304EB8708DF
:200AC000303DC8F8185019E059F8041B204604EB87029161E1688847012F054618D1E06983
:200AE000002820DA26F020061DE0D8F8180000EB800005EB40003038C8F818002046E16829
:200B00008847054602F031FD0028EED1012F0AD02E2D08D12046E16888477F1C0546022FE1
:200B200046F02006C4DBA069002803DA404246F00106A061F00701D026F010066C2D0BD084
:200B4000682D09D04C2D39D06A2D35D0742D35D07A2D33D016E038E0E1682F4620468847B8
:200B6000B842054609D16C2F26D04FF48060E168064320468847054604E06C2F1AD04FF4E4
:200B8000807006430DB3A5F14100192802D8203546F400664A462946204626604E46FFF700
:200BA0002DFB80B101280BD0F61D26F0070000F1080956E74020E4E78020D8E70020D6E702
:200BC00006F104094DE7284652E7206ABDE8F09F3C30000030B5B0F10A024FEA900E71F141
:200BE00000034EEA817EB0EB0E0061EB91014FEA101E4EEA017E10EB0E0041EB11114FEA86
:200C0000102E4EEA016E10EB0E0041EB11214FEA104E4EEA014E10EB0E0041EB114140188B
:200C200041F100014FEAD00040EA41704FEAD10110EB80054FEA810444EA907444EB0104EE
:200C40006D1944EB0404521BA3414FF0000348BF0A3200D530BD401C41F1000130BD2DE9AD
:200C6000F0470D4699469246044600F124080168880604D5E06921F01001216000E001200F
:200C8000A84201DD471B00E00027A1697A1902EB0900081AA0612078C00602D42046FFF7DD
:200CA000D5FC002608E0D4E901211AF806009047206A401C761C20624E45F4DB2078C006CD
:200CC0000AD52046FFF7C2FC06E0D4E9012130209047206A401C2062381EA7F10107F4DC01
:200CE00007E0D4E9012118F805009047206A401C2062281EA5F10105F3DC2046FFF7BCFC15
:200D00002078000602D50220BDE8F0870120FBE770472DE9FF4F0C461E464FF0FF378BB09C
:200D2000D2E90001DDF860800A908A46C1F30A5505B93D46002108464FF00000BAF1000F1C
:200D400000F4400005DA00EB80004FF4400101EA50004FEA9059B9F1010F00DDB9460A98FC
:200D600050EA4A000ED044F61050A5F2FF3545432F14B8F1000F1ED07542291E1EDDC9F188
:200D800000021CE0B8F1010F4FF0000001D0302103E0F24305E02154401CB042FBDB30462F
:200DA0000022002121540B99C1F80880C1E900200FB0BDE8F08FBD1B6D1CDEE74A4600DA59
:200DC000694206A800F0F2FB06AB93E8070003AB83E8070050460A9900F060FC8DE8070089
:200DE000A0F500501F3800900398002D09DD42F21F014A46084403A90390684600F0BFFEAF
:200E000008E0A0F500504A461F3803A90390684600F0C9FE8DE807000004000C03D04FF0DC
:200E2000FF30410800E01046B8F1000F03D00022009215461EE0751E05D4FFF7CBFE3032DF
:200E400062556D1EF9D5B3460122084302D000227F1C04E02078302801D100227F1E002AFD
:200E6000099786D01DE0112D07DAFFF7B3FE303262556D1C50EA0102F5D1084302D000985F
:200E8000C8B10EE00021681E05E0235C625C63542254401E491C8142F7DBAB46A81B401E8B
:200EA0000990002004F80B000B98099AC0F80880C0E9002B7CE711264FF0000859E72DE9E1
:200EC000F04F88460446D21D22F0070191B0D1E90001CDE90A0102F030FB02460B98C00F1E
:200EE00001D02D2007E02068810701D52B2002E0202101EAC000032A099001D0072A05DB46
:200F000003464146204600F011FB0BE12078800601D5E06900E00620B8F1650F814606D0B6
:200F2000B8F1660F18D0B8F1670F70D131E00020B9F1110F009001DB112301E009F10103D1
:200F40000AAA01A90CA8FFF7E4FEDDE90C70002609F10105834647E001204B4600904FF0CE
:200F600000470AAA01A90CA8FFF7D3FEDDE90DB00C995D46002610B909F101000D18B9EBD3
:200F8000050003D4C0F1FF3609F10105A5EB09002BE0B9F1010F01DA4FF001090020B9F143
:200FA000110F0090484601DD112300E003460AAA01A90CA8FFF7ADFEDDE90C704D4600260A
:200FC0008346207800070AD4AB4500DA5D4601A8012D04DD411911F8011C302907D04F4562
:200FE00002DA17F1040F04DA012082460FE06D1EEEE7002F02DCED1B3E4403E0781CA842EC
:2010000000DD7D1CB81B00F1010A4FF000472078000703D4AA4501DB4FF0FF3A0021B7F183
:20102000004F0DF143088DF8431024D002202B23002F01DA7F422D230A21021EA0F10100E4
:2010400000DC5FB197FBF1FC97FBF1F201FB1C7C17460CF1300C08F801CDEEE7A8F1010049
:2010600003702188090501D5452100E06521A0F1010800F8011C09980FA9A1EB0807FF1DE5
:2010800000B10120411901EBEA70A1693844081A401EA0612078C00602D42046FFF7D6FA77
:2010A000099828B1D4E901219047206A401C20622078C00622D52046FFF7C8FA1EE0002EF9
:2010C00004DBB34502DD01A8805D00E03020D4E901219047206A401C2062761CAAF1010058
:2010E0005FEA000A0AD100F01DFAC0680168405CD4E901219047206A401C2062281EA5F194
:201100000105DCDC07E0D4E9012118F8010B9047206A401C2062381EA7F10107F3DC2046C5
:20112000FFF7AAFA032011B043E600002DE9F04F04460D46D21D22F0070089B0D0E900928A
:2011400048461746394602F0F8F90246F80F01D02D2307E02068810701D52B2302E0202194
:2011600001EAC0038DF820300BB1012000E00020032A824601D0072A04DB2946204600F074
:20118000D5F93DE12078800601D40D2500E0E569C7F30A560D2D49DA00214FEA175B08467F
:2011A0004FF00000002F00F4400007DA00EB80004FF4400100EBD07001EA60008115012987
:2011C00001DD4FF0FF3100224FEA850CBCF1180F06D31346ACF118004FF08052C24003E025
:2011E0004FF4801323FA0CF30CF10C0CBCF1200F04D3ACF1200C09FA0CF001E007FA0CF08F
:2012000000294FF0004801DD18B90FE00ED140450CD319EB02095F4121B9404502D19F437A
:2012200029EA0209BBEB175F00D0761C2088000502D57B48784402E079487844193808AAAD
:20124000302302F80A30037C0AF10101002E0AF1020A53546A4602DC4FF0300101E04FF091
:2012600031014FF001088DF8001002D0A6F2FF3603E059EA470100D06A4E002D02DC217826
:20128000090704D54FF002082E218DF80110C44600210BE0C7F303433F01C35C491C6D1ED2
:2012A00002F80830052908F1010801DA002DF1DC00210CE000EB1973491C1B786D1E0829BF
:2012C00002F808304FEA091908F1010801DA002DF0DC2178890602D514E0A8F10108E045F1
:2012E00005DD02EB080111F8011C3029F5D0B8F1000F07DD02EB080111F8011C2E2901D1F1
:20130000A8F10108002D05DD3E2102F808106D1E08F10108407C002E02F8080008F1010830
:2013200004DA2D20764202F8080002E02B2002F808000A214FF47A70864208F101080BDB91
:2013400096FBF0F3303302F8083096FBF0F308F1010800FB136601E0642E0CDB642096FB2B
:20136000F0F3303302F8083096FBF0F308F1010800FB136601E00A2E06DB96FBF1F030303F
:2013800002F8080008F1010896FBF1F001FB1060303002F80800A16908F1010808EB050203
:2013A00002EB0A00081AA0612078C00602D42046FFF74CF9216A08AE01EB0A00206204E0A1
:2013C000D4E9012116F8010B9047BAF1010AF7D22078C00602D52046FFF738F96E4609E05F
:2013E00016F8010B3E280FD0D4E901219047206A401C2062B8F10108F2D22046FFF73CF969
:2014000009B00320BDE8F08F206A2844206203E0D4E90121302090476D1EEBD3F8E7000043
:201420008828000002FCFFFF10B5436913B1AFF3008001E0FFF743F9012010BD127800F12D
:2014400024010A7000224A700122EDE711684FF0FF32E9E710B5436913B1AFF3008001E029
:20146000FFF7D6F9012010BD128800F1240182840022C2840122EDE711684FF0FF32E9E7EB
:20148000007B00F08000704770B516460C46054600F040F8036893F80101012806D0FF2C42
:2014A0000FD8185D68B101202C7070BDD3F807013246214603F2071303442846BDE8704002
:2014C00018474FF0FF3070BD754600F0E3F8AE4605006946534620F00700854618B020B5CC
:2014E000FEF70AFFBDE820404FF000064FF000074FF000084FF0000B21F00701AC46ACE82E
:20150000C009ACE8C009ACE8C009ACE8C0098D467047000010B500F005F8001D10BD00BF06
:201520000D23000000487047A02F00202DE9F0411F46044603260168072A01F4006004DBA0
:2015400008B116A505E016A503E008B115A500E015A521F010002060A069C01EA0610FB13E
:20156000401EA0612046FFF771F84FB1D4E9012138469047206A401C2062C01C206206E067
:20158000206AFAE7D4E9012115F8010B9047761EF8D22046FFF770F8BDE8F0814E414E00FC
:2015A0006E616E00494E4600696E66002DE9F047814616468AB0334878440DC88DE80D009C
:2015C00030487844801C03AC0DC884E80D0041F69B300844372190FBF1F290FBF1F5A5F123
:2015E000800501FB12041B3C02D56442012000E00020DFF890A080460027FA44AAF1BE0ACA
:201600000DE0E00709D03246684607EB47010AEB810100F0C8FA8DE8070064107F1C002CDD
:20162000EFD1184F7F44AC3F18E0E80714D007EB04100DF1180A90E80E008AE80E00C068B6
:20164000F04201D198190890324606A903A800F0AAFA03AB83E807006D10641C002DE4D1D8
:2016600032466946B8F1000F03A802D000F087FA01E000F098FAC9E90001C9F808200AB0E4
:20168000BDE8F087942500000446AFF300802046FEF719FE00487047802F00205FEA400C34
:2016A00008BF91F0000F4FEA8C234FEAC12243EA51514FEA1C5018BF00F5F0404FEA3000F6
:2016C00018BF41F000415FEA6C5C00F02980BCF1FF3F08BF40F080407047130C06BF1204C4
:2016E0004FF0100C4FF0000C130E04BF12020CF1080C130F04BF12010CF1040C930F04BFD1
:2017000092000CF1020CD30F04BF52000CF1010C11464FF00002A0F11F00A0EB0C00704795
:2017200011F0004F08BF704731F000413FF4D5AF0B0C06BF09044FF0100C4FF0000C0B0E1A
:2017400004BF09020CF1080C0B0F04BF09010CF1040C8B0F04BF89000CF1020CCB0F04BF28
:2017600049000CF1010CCCF12003A0EB0C0022FA03F302FA0CF241EA030100F101007047BB
:2017800020F07F4C80EA030023F07F47ACEB070303F57C5300F0004003F1FF032DE98049BB
:2017A0004FEA154B09B44FEA144325EA0B4E24EA03480FF2042606EB132749083E785FEADC
:2017C000320203FB0667C7F5000707FB06F64FEA54374FEAD64606F1020607FB066CCCF160
:2017E000005C4FEA1C472CEA074C07FB06F40CFB06F504EB15464FEA961634BF00204FF009
:2018000000404FEAD13706FB07FC4FEA1C4C0CFB0BF7D21B03FB0CF761EB07010CFB0EF74B
:20182000B0EB074072EB17420CFB08F734BFA2EB0742B2EB074261EB17414FEA0C444FEAF5
:20184000910706FB07FC4FEA1C4C0CFB0BF7B0EBC74072EB573203FB0CF734BFA2EBC74230
:20186000B2EBC74261EB57310CFB0EF7B0EBC70072EB57720CFB08F734BFA2EBC702B2EB6E
:20188000C70261EB5771039F4FEA816141EA921104EBCC044FEAD1374FEA826206FB07FCBF
:2018A00042EA90124FEA80604FEA1C4C0CFB0BF7D21B03FB0CF761EB07010CFB0EF7B0EBAE
:2018C000074072EB17420CFB08F734BFA2EB0742B2EB074261EB17414FEA8C554FEA9107C7
:2018E00004EB9C2406FB07FC4FEA1C4C0CFB0BF7B0EBC74072EB573203FB0CF734BFA2EB82
:20190000C742B2EBC74261EB57310CFB0EF7B0EBC70072EB57720CFB08F734BFA2EBC70261
:20192000B2EBC70261EB577115EB4C254FEA816141EA92114FEA82624FEAD13742EA9012A7
:2019400006FB07FC44F100044FEA80604FEA1C4C0CFB0BF7D21B03FB0CF761EB07010CFB3E
:201960000EF7B0EB074072EB17420CFB08F734BFA2EB0742B2EB074261EB174115EB1C1540
:201980004FEA813141EA92414FEA823242EA90424FEA80304FEA0C7644F1000448EA03431E
:2019A0004EEA0B484FF0000EB2EB080C71EB030724BF624639464EEB0E0E4FF0000B001877
:2019C000524149414BEB0B0BB2EB080C71EB03077BF1000B24BF624639464EEB0E0E4FF072
:2019E000000B0018524149414BEB0B0BB2EB080C71EB03077BF1000B24BF624639464EEB8A
:201A00000E0E51EA020718BF46F0010616EB0E7655F1000254F1000103D5BDE88901BDE893
:201A20000088BDE88901BDE80048B619524141EB0101A3F10103704780807F7E7D7C7B7A38
:201A40007978777676757473727171706F6E6E6D6C6C6B6A6A6968686766666564646363E4
:201A600062616160605F5F5E5E5D5D5C5C5B5B5A5A59595858575756565555555454535323
:201A800052525251515050504F4F4F4E4E4D4D4D4C4C4C4B4B4B4A4A4A49494948484847B1
:201AA000474747464646454545444444444343434342424242414141002B26D4770021D03C
:201AC0001CB54FEA370703B44FF010004FF010014FF000000FBCBDE810400BF1010BBBF1B5
:201AE000010F08BF5FEA170722BF12F1010211F101014FF0004143F1000300F0004043EAA9
:201B000000007047F9D35708DAE746EA064613F1400F4FEA16461FDD13F1200FDFBF164398
:201B20000A46002120335B42C8D0C3F1200746EA064602FA07F74FEA164646EA0706C3F1D5
:201B4000200722FA03F201FA07F721FA03F14FF0000342EA0702B1E746EA020646EA064682
:201B60004FEA164646EA0106BCBF46EA0646360C4FF000034FF000024FF000019EE72DE902
:201B8000C048934630B491E8380007C831EA400C48BF34EA430C03D5FFF7F2FDFFF78CFFE7
:201BA000F0BCBDE800882DE9C048934630B491E8380007C810F0804F08BF13F0804F03D1B5
:201BC00000F005F8FFF778FFF0BCBDE8008820F07F4780EA030023F07F4C07EB0C03A3F518
:201BE0007C5300F00040A3F1FE0392F0000F00F0B38095F0000F00F077802DE901494FEA89
:201C000011404FEA144621EA004800FB06FC24EA064708FB06F607FB08F800FB07F718EB38
:201C200006484CEB164C4FEA124B18EB07484FEA15464CEB174022EA0B4E0BFB06FC25EA37
:201C400006470EFB06F607FB0EFE0BFB07F71EEB064E4CEB164C4FF000061EEB074E4CEB50
:201C6000174B18EB0B0840F1000018EB0E0B58EB000840F100008F1A4FF000013CBFC94333
:201C8000661B14BFB5EB040C00213CBFC943F61B4FEA17444EEA8E0E27EA04454FEA1C47A9
:201CA00004FB07622CEA074C05FB07F70CFB05F604FB0CFC16EB074642EB174216EB0C4625
:201CC00042EB1C421BEB060658EB0202414146EA9E0601D5BDE80189B619524141EB010135
:201CE000A3F10103BDE801894FEA14454FEA114724EA054621EA074C05FB07F406FB07F749
:201D00000CFB06F105FB0CFC11EB074144EB17444FEA124711EB0C4144EB1C4422EA074C26
:201D200005FB07F206FB07F70CFB06F605FB0CFC16EB074642EB174216EB0C4642EB1C45EB
:201D40006A1854F1000148BF7047B619524141EB0101A3F10103704795F0000F37D04FEA4A
:201D600011424FEA144721EA024624EA074C02FB07F106FB07F70CFB06F402FB0CFC14EBCF
:201D8000074441EB17414FEA154714EB0C4441EB1C4125EA074C02FB07F506FB07F70CFBA6
:201DA00006F602FB0CFC16EB074645EB174516EB0C4645EB1C42121951F1000148BF70473B
:201DC000B619524141EB0101A3F1010370474FEA14454FEA114724EA054621EA074C05FB4A
:201DE00007F106FB07F70CFB06F24FF0000605FB0CFC12EB074241EB174112EB0C4251EB4F
:201E00001C4148BF7047921841EB0101A3F1010370470000034902480860FEF75BBA000078
:201E20000000010808ED00E0FEE700002DE9FF4F81B00E460446002311E0E05C10280CD147
:201E4000E0184078102808D1184604E0211849782154401C80B2B042F8D35B1C9BB2B3420C
:201E6000EBD30025A6F10A075CE0605D102857D104EB050898F80100282851D198F80600E9
:201E8000284400F10A01B14206D82044827A102A02D1C07A2C2804D0324624A001F038FCD9
:201EA0003EE008F10200052100F019FD98F80710C0B2814203D026A001F02AFC30E098F8B1
:201EC00002000090264898F80310017098F80410417098F80690049905EB0900204481F800
:201EE0000090417A007A01EB00201FFA80FA98F805000009012807D108F1020009F10601E3
:201F000000F0FEFC1FFA80FBDA4509D161194A4608310398FEF7B7FA009805B0BDE8F08F55
:201F20006D1CADB2BD42A0DB0020F6E70D0A090928692B31302B446174614C656E292020CF
:201F40003E205265634C656E092025642C2564000D0A2073756E636865382020000000004E
:201F6000580000202DE9F043FFB0884607461C469146FC216846FEF7FDFAFC213FA8FEF7ED
:201F8000F9FA10268DF8006028208DF8010025488DF802708DF8038080788DF804006D46C5
:201FA0008DF805608DF806400521A81C00F097FC8DF807002246494602A8FEF764FAA11DC1
:201FC000A81C00F09DFC29193FAA4872000A08729DF800008DF8FC009DF801008DF8FD001D
:201FE0000021022004F10A030DE02F5C00EB010C102F02F80C7004D10CEB0207491C7E704F
:2020000089B2401C80B29842EFD3214488182C228672C2723FA80C3100F0A8FF7FB0BDE84D
:20202000F0830000580000207047000010B5044600F098FC04EB000400F094FCA042FBD348
:2020400010BD00002DE9F0414FF0804001F04FF904464FF48065284600F002FB012856D117
:2020600029462C4800F030FC07462C480A232A4E00222B49012FA0F8963329D0D0E9DE370D
:20208000E0E9DC37B38837681B043E0443EA174334195341C0E9024390F82B3023F00803D2
:2020A00043F0040380F82B30A0F55C700B78022B09D30A70D0E9DE31F0E9D8421B1B61EB6F
:2020C0000201C0E908312846BDE8F04100F0C2BAD0E9DA37E0E9D8373768B688360446EA82
:2020E00017463F043C195641C0E90246E31A036390F83B3023F0040343F0080380F83B30D2
:202100000B78A0F5587003F101030B70CEE7BDE8F08100000004024048000020800400204F
:20212000050000202DE9F0414FF0804001F0DFF80446042000F094FA01286CD10421374876
:2021400000F0C2FB37490A2601F58052344DDFF8D8C00023A2F8166118B3D2E93A06E2E9A5
:2021600038062E68AD8841F2E8072D0445EA1645360434195D413E1D7C507550201A1063BB
:2021800092F83B0020F0040040F0080082F83B009CF80000A2F1E00200F101008CF80000FA
:2021A00019E0D2E93E06E2E93C06A8882E680004350440EA16402D19584141F2F806341D36
:2021C0007550605092F82B0020F0080040F0040082F82B00F03A9CF80000022816D38CF88F
:2021E00000304FF487531046D2F8F8205B5841F2E404D21A4FF48853D0F8FC0064585A5058
:2022000001F5805160EB0400C1F80401BDE8F041042000F01FBABDE8F081000000100240BF
:2022200048000020800400200A0000202DE9F05F4FF0804001F05BF80546202000F010FA3B
:20224000DFF8F0B3DFF8F0930026FC4CFC4F4FF00A08012837D12021584600F035FB012847
:20226000A4F8F68635D004F5DA64D4E90201C4E90001B9F80400D9F80010000440EA114087
:20228000090449197041C4E9021094F82B0020F0080040F0040084F82B00A4F5DA6438782E
:2022A00002280DD304F5D8643E70D4E90012D4E90630591A60EB0200C4E90810A4F5D86415
:2022C000202000F0C7F9402000F0CAF9012823D05AE004F5D864D4E90201C4E90001B9F851
:2022E0000410D9F80020090441EA1241120452197141C4E90221101A206394F83B0020F0C7
:20230000040040F0080084F83B003878A4F5D86400F101003870C2E74021CA4800F0D4FAD1
:202320000128A4F8B68D35D004F55964D4E90201C4E90001B9F80400D9F80010000440EAA8
:202340001140090449197041C4E9021094F82B0020F0080040F0040084F82B00A4F559644D
:20236000787802280DD304F558647E70D4E90620D4E90031D21A60EB0100C4E90820A4F549
:202380005864402000F066F9802000F069F9012823D05AE004F55864D4E90201C4E9000167
:2023A000B9F80410D9F80020090441EA1241120452197141C4E90221101A206394F83B0065
:2023C00020F0040040F0080084F83B007878A4F5586400F101007870C2E78021584600F003
:2023E00073FA0128A4F8568A37D004F52364D4E90201C4E90001B9F80400D9F8001000043C
:2024000040EA1140090449197041C4E9021094F82B0020F0080040F0040084F82B00A4F51F
:202420002364B87802280DD304F52264BE70D4E90620D4E90031D21A60EB0100C4E9082050
:20244000A4F52264802000F005F94FF4807A504600F006F9012823D052E004F52264D4E983
:202460000201C4E90001B9F80410D9F80020090441EA1241120452197141C4E90221101A3D
:20248000206394F83B0020F0040040F0080084F83B00B878A4F5226400F10100B870C0E7DF
:2024A0005146694800F010FA0128A4F8368074D0D4E90601C4E90401B9F80400D9F800100F
:2024C000000440EA1140090449197041C4E9061094F83B0020F0080040F0040084F83B00D0
:2024E000F878022809D3FE70D4E90610D4E90032C91A60EB0200C4E90810504600F0AAF819
:202500004FF4007A504600F0ABF801287ED15146584600F0D9F94D490128A1F8D6875BD086
:20252000D4E9060204F5805303F5F66305C3B9F80400D9F80020000440EA12401204531949
:20254000704141F2B8752A1D2B51105191F8DB0720F0080040F0040081F8DB073879022859
:2025600016D33E7104F580504FF4BD52D0F8B817125941F2A473891A4FF4BE52D0F8BC07DB
:202580001B59115104F5805460EB0300C4F8C4075046BDE8F05F00F05DB8D4E90201C4E9C7
:2025A0000001B9F80410D9F80020090441EA1241120452197141C4E90221101A206394F89D
:2025C0003B0020F0040040F0080084F83B00F87800F10100F87083E741F2A87041F2AC72ED
:2025E00004F58053005903F5F463125905C3B9F80420D9F80030120442EA13421B045B1934
:2026000001F5FA61724141F2A87C00E020E041F2AC754CF804302A51181A0860C87A20F04C
:20262000040040F00800C872387900F10100387194E700000004024048000020800400200B
:2026400000000020000802400000024080140020BDE8F09F0149086070470000143C0140EC
:20266000034A0146002012680A4200D001207047143C01407CB50121084600F04DFB0120AD
:202680008DF8040000218DF8061003218DF80510074D4FF400448DF807000094694628461F
:2026A00000F0B1F82146284600F017F97CBD00000000024005490028086802D040F4806065
:2026C00001E020F48060086070470000003C024070B50646002529B1012927D0022928D0D4
:2026E0004FF4407500F080F809281ED1124C206820F440702060206828432060206820F025
:20270000F8002060206846F0020108432060206840F48030206000F067F8216821F00201DD
:202720002160216821F0F801216070BD4FF48075D8E74FF40075D5E7103C02400D4909205F
:202740000A68D20301D5012070470A68D20601D5062070470A68D20501D5022070470A681D
:2027600012F0EF0F01D00720704709688907FBD5082070470C3C02400248016841F000414B
:2027800001607047103C024070B50D46064600F02BF8092813D10A4C206820F44070206085
:2027A000206840F400702060206840F001002060356000F019F8216821F00101216070BD54
:2027C000103C024005480068002805DA034804490C3801600349016070470000103C024080
:2027E00023016745AB89EFCD08B509208DF80000FFF7A4FF8DF800009DF800000128F7D00B
:202800009DF8000008BDF0B50023012403270D6804FA03F21540954242D1D0F800C05E00BA
:2028200007FA06F52CEA050CC0F800C091F804C0D0F800E00CFA06FC4CEA0E0CC0F800C038
:2028400091F804C0BCF1010F02D0BCF1020F1FD1D0F808C02CEA050CC0F808C091F805C069
:20286000D0F808E00CFA06FC4CEA0E0CC0F808C0D0F804C02CEA020CC0F804C0426891F871
:2028800006C00CFA03FC1FFA8CFC42EA0C024260C268AA43C260CA79C568B2402A43C260C6
:2028A0005B1C102BB3D3F0BD4B07DB0E9A40C90810B500EB8100016A0F249C40A14301625B
:2028C000016A1143016210BD0246002012690A4200D0012070474183704701837047034633
:2028E00010B50020024603E09C5C521C2044C0B28A42F9D3802802D3C0438130C0B210BD84
:2029000030B500231A46094D0BE000BF10F8014B521C84EA132492B235F8144084EA03238F
:202920009BB28A42F2D3184630BD00006A3800082DE9F0414FF0804000F0D9FC084A002146
:20294000D2E902451368A4FB036705FB037304FB013380195941C2E90401BDE8F08100004F
:202960004000002010B5FFF7E3FFC117024A0023FDF7D5FC10BD0000956C0100FEE700009A
:2029800010B5FFF7D5FF104A104CC2E90201D2E900321B1942F10002181A8A4113D20C48B8
:2029A0008189CA0701D18A0706D4C3880289934209D20A33934206D121F0020141F0010149
:2029C0008181C188418110BD18000020956C0100700400202DE9F041ADF50E7D002714227E
:2029E0005BA182A88097FDF793FD5EA0142200688C905DA05DA100688D9087A8FDF788FD36
:202A0000FFF7B0FF5E4D28615EA000F081FE4FF480786E460120FFF709FBFFF7B1FF414639
:202A200040A800F0E5F90A2873D9C1B280AB6A4640A8FFF7FBF9287990B1AA78697955A067
:202A400000F066FE6979687881423DD18DA8FDF7FBFC03468DAAA1218020FFF783FA55E0E5
:202A6000809951A0775400F053FE53A000F050FE002405E0315D51A000F04AFE641CE4B239
:202A800080988442F6D382A96846FDF79BFD00283FD168786871A8700120287182A8FDF749
:202AA000D3FC034682AAA1218020FFF75BFA82A8FDF7CAFC034682AAA1218020FFF752FA28
:202AC000FFF750FF2861A5E76871A8706846809900F096F88CA8FDF7B7FC03468CAAA1214A
:202AE0008020FFF73FFA8CA935A000F011FE809880280BD087A8FDF7A7FC034687AAA12161
:202B00008020FFF72FFA2FA00DE002E0FFF72AFF28612879A0B1FFF725FF2969401AB0F513
:202B2000FA6FD0D92BA000F0F3FD32A000F0F0FD00F0B6FDFFF76EF90DF50E7DBDE8F08186
:202B4000FFF710FF2969401AC828BCD9EAE700004941505F7072616772616D207374617231
:202B6000742100002E000000210000004941505F7072616772616D20656E642100000000D6
:202B8000580000200D0A20D7BCB1B8A1A3A1A3A1A30000000D0A206C73747265636E756DAA
:202BA0002025782C257800000D0A206C707261666C672025640000000D0A00002563000028
:202BC000257300000D0A206C656E20213D203132380000000D0A47657453797354696D65A9
:202BE0002829202D2074696D65203E2031303030000000000D0A20626F6F7420656E6400E7
:202C000070B5164C0D460146E078154E401CE070E0682A463044FDF736FCE0684FF480626D
:202C20002844E060E178082902D0802D02D170BD802D05D0FF2101E03154401C9042FBD3DB
:202C400072B60749A06800F0EDFC62B6A06800F58060A0600020E070E06070BD58000020D1
:202C6000801F002002494CF6CC400860704700000030004001494860704700000030004054
:202C8000014988607047000000300040014908607047000000300040FEE7704730B50F2250
:202CA000C47801780123FCB1144C246801F1E02104F4E064C4F5E064C4F30724C4F10405D6
:202CC000E2404478AC408578154025432A0181F80024007800F01F018B404009800000F19B
:202CE000E020C0F8003130BD01F01F0083404809800000F1E020C0F8803130BD0CED00E03A
:202D00000249084302490860704700000000FA050CED00E070470000044A0029116801D063
:202D2000014300E0814311607047000030380240044A0029116801D0014300E081431160BF
:202D40007047000040380240044A0029116801D0014300E081431160704700004438024073
:202D600070B5204A1168204C11F00C0104D06610042903D0082903D004601BE0066019E0C5
:202D80001849091F0B68C3F380550B6803F03F0315B1B6FBF3F301E0B4FBF3F30C6809684C
:202DA000C4F388146343C1F30141491C4900B3FBF1F1016011680F2303EA11110B4B5C5CBD
:202DC0000168E14041601468072505EA94241C5D21FA04F48460126805EA52329A5CD14015
:202DE000C16070BD083802400024F4002C00002070B5164A04469089C30710D020F00100FC
:202E0000908153899088158903445B1B93FBF0F500FB1530884200D9084600230BE0002080
:202E200070BD95881944B1FBF5F605FB16111568695CE1545B1C11898342F2D393880144BB
:202E4000B1FBF3F403FB1411118170BD700400201C49884201D2002070471B49884201D28F
:202E6000082070471949884201D2102070471849884201D2182070471649884201D2202064
:202E800070471549884201D2282070471349884201D2302070471249884201D2382070477A
:202EA0001049884201D2402070470F49884201D2482070470D49884201D25020704758205F
:202EC00070470000004000080080000800C000080000010800000208000004080000060876
:202EE0000000080800000A0800000C0800000E082DE9F04117460E460446B0F1006F2ED333
:202F0000A0072CD1FFF75EFC0020FFF7D3FB1548254604EB870784420DD317E02868401C0B
:202F200008D02846FFF794FF0221FFF7D1FB092801D00DE02D1DBD42F0D307E020463168FC
:202F4000FFF722FC092803D1241D361DBC42F5D30120FFF7AFFBBDE8F041FFF70DBCBDE803
:202F6000F08100000000FF1F704700002DE9F05FDFF84CB00F4681464FF4004A51465846F5
:202F8000FFF7ABFC00240F4E42F210780EE0454619F80410304600F0CBFA4021304600F0C7
:202FA0002FFA012801D06D1EF7D2641CBC42EED351465846FFF78FFC3846BDE8F09F0000F3
:202FC00000000240001001400CB500202749019000900A6842F480320A604FF4A0430A6890
:202FE00002F400320092019A521C0192009A12B9019A9A42F3D10A68920334D5012000901A
:203000001A484030026842F0805202601848026842F440420260154808300268026002685F
:2030200042F400420260026842F4A0520260031F104A1A600A6842F080720A600A689201C7
:20304000FCD50D4A40F205711160016821F003010160016841F0020101600168C1F38101B3
:203060000229FAD10CBD00900CBD0000003802400070004008544007003C02404FF0E021AD
:203080000428086903D020F004000861704740F00400FAE770470000124810B5016841F403
:2030A000700101601048016841F0010101600E4A00210832116002680C4B1A400260031D28
:2030C0000B4A1A60026822F48022026006480C300160FFF779FF03494FF000608039086038
:2030E00010BD000088ED00E000380240FFFFF6FE103000242DE9F0414FF0804000F0F7F8B9
:203100004A4D04460221284600F0F3F800287AD0A8460021404600F000F9284600F0E5F837
:20312000A9154348FFF7D0FB43490A2601F58052404D0023DFF804C10128A2F876643BD00D
:2031400002F58A62D2E90206C2E90006A8882E680004350440EA16402D19584141F25846E5
:20316000341D7550605092F82B0020F0080040F0040082F82B00A2F58A6200BF9CF800000D
:20318000022816D38CF800304FF4A2531046D2F858245B5841F24444D21A4FF4A353D0F839
:2031A0005C0464585A5001F5805160EB0400C1F864040221404632E002F5886241F24847B4
:2031C000D2E90206C2E900062E68AD882D0445EA1645360434195D413E1D7C507550201AAA
:2031E000106392F83B0020F0040040F0080082F83B009CF80000A2F5886200F101008CF80B
:203200000000BBE7FFE70121284600F072F8002809D00021284600F080F801212846BDE80F
:20322000F04100F055B8BDE8F0810000004401400004024048000020800400200F00002044
:2032400010B501218C07204600F053F8012807D10649D1E90220521C40F10000C1E90220BC
:203260002046BDE81040012100F032B8400000207FB5044615480D46012104600846FFF79F
:2032800057FD0194ADF8005000244FF08045ADF80240ADF808406946284600F041F80122EB
:2032A0001146284600F031F80121284600F013F81C208DF80C008DF80D408DF80E40012012
:2032C0008DF80F0003A8FFF7E9FC7FBD40000020C943018270470029018802D041F001013B
:2032E00001E021F0010101807047406B7047406A704702460020138A92890B4202EA010283
:2033000002D0002A00D001207047002A828901D00A4300E08A4382817047416270470000F5
:2033200030B50288164B174C98420DD0A0420BD0B0F1804F08D0144DA84205D0134DA84234
:2033400002D0134DA84203D122F070054A882A43104DA84206D0104DA84203D022F44075B5
:203360000A892A4302804A68C2620A880285984201D0A04201D1897A01860121818230BDE1
:2033800000000140000401400004004000080040000C0040001000400014004070B5FFF710
:2033A000C7FA0F4A0F4C104DC2E90001A08940F2255140F00200A081284600F028F80028C5
:2033C0000DD0284600F0B0F8E188A4F580625054A088491CB1FBF0F200FB1210E08070BDBD
:2033E0001800002070040020001001400029818902D041F4005101E021F400518181704725
:203400000246002012880A4200D00120704730B501F01F0201240025C1F3421304FA02F27A
:20342000012B0FD0022B0FD0838A4FEA11210088134204FA01F400EA040001D000B1012597
:20344000284630BD8389F0E7038AEEE710B5C1F3421301F01F040121A140012B07D0022BB7
:2034600007D01430002A026805D00A4304E00C30F8E71030F6E78A43026010BD7FB50446E5
:20348000008A0D4620F44051E88808432082A08941F20C618843A9882A8911436A89024349
:2034A0001143A181A08A20F44071A8890843A0826846FFF755FC1A48844202D019488442F3
:2034C00001D1039800E00298A189090400EBC00101EB0010296801D5490000E08900B0FB62
:2034E000F1F26420B2FBF0F109010B096FF018056B4302EB8302A3891D044FF0320306D581
:2035000003EBC202B2FBF0F000F0070005E003EB0212B2FBF0F000F00F00084320817FBDDA
:2035200000100140001401408088C0F308007047C1F3080181807047FEE703B40198410080
:20354000009850EAC12018BF04204A0D18BF40F0010040F2FF72B2EB515F08BF40F0020075
:20356000012808BF052002B0704730380A2801D201207047002070477047000010B50446EB
:203580006FF00400FFF77AFD0648E10801EB41020170C2EBC1114FF6FF7202EAC1014180E0
:2035A00010BD00001400002070B54FF40775B0FBF5F1CCB2B0FBF5F105FB110604E028461D
:2035C00000F00CF8641EE4B2002CF8D1002E04D03046BDE8704000F001B870BD0B49498822
:2035E00048434FF0E021486100228A61086940F0010008610869C30701D0C003FAD5086930
:2036000020F0010008618A61704700001400002003490A885206FCD5C2B28A80704700001E
:20362000001001402DE9F0470025904606460C462F464FF40079DFF854A019E0E078A178ED
:20364000000640EA014061784A4640EA012114F8040B08434AF825006D1CADB2954206D1E1
:2036600000250A493046FFF743FC06F500663F1D4745E3D3002D06D02A463046BDE8F04763
:203680000249FFF735BCBDE8F0870000802700200023838101600381C38043818280704749
:2036A00010B545F25550FFF7F1FA40F6FF70FFF7E7FA0320FFF7DEFABDE81040FFF7D2BAA4
:2036C0004FF4A060FFF71CFBA820FFF757FF6420FFF76AFF4FF4614000F034F8FEF7CAFFE5
:2036E00008214FF0FF30FFF7C3FD03A0FCF7A0FEFFF770F9FCE700000D0A0D0AC4FAB7A2C2
:20370000CBCDB5C4CFFBCFA2CEAA3A0D0A0000000FB400B5C1B04298FCF796FE4298FCF77D
:2037200093FEC8280BD843AA68464299FCF76EFE6846FCF789FE01466846FFF717FC41B039
:203740005DF814FBF0B50646012187B00846FFF7E3FA01211020FFF7F7FA264F0722092199
:203760003846FFF7A1F807220A213846FFF79CF84FF4C060049002208DF814008DF8150094
:2037800000248DF8164001258DF8175004A93846FFF739F8ADF80440ADF80640ADF8084005
:2037A000ADF80C400C20144CADF80A00009669462046FFF763FE01212046FFF717FE0F49F0
:2037C000221501F58060FFF763FF012240F225512046FFF73BFE25208DF8180003208DF89A
:2037E00019008DF81A008DF81B5006A8FFF756FA07B0F0BD000002400010014070000020A6
:2038000010B500290AD00878002807D005487844FCF7D8FE002801D0002010BD02487844A3
:2038200010BD00007A0300007203000010B500290AD00878002807D005487844FCF7C2FEC6
:20384000002801D0002010BD0248784410BD00006A030000620300004FF04070E1EE100A05
:203860007047FDF72CBBFDF761BC00002110422063308440A550C660E770088129914AA11B
:203880006BB18CC1ADD1CEE1EFF13112100273325222B5529442F772D662399318837BB331
:2038A0005AA3BDD39CC3FFF3DEE36224433420040114E664C774A44485546AA54BB5288531
:2038C0000995EEE5CFF5ACC58DD55336722611163006D776F6669556B4465BB77AA71997F1
:2038E0003887DFF7FEE79DD7BCC7C448E5588668A7784008611802282338CCC9EDD98EE9E9
:20390000AFF9488969990AA92BB9F55AD44AB77A966A711A500A333A122AFDDBDCCBBFFB30
:203920009EEB799B588B3BBB1AABA66C877CE44CC55C222C033C600C411CAEED8FFDECCDB0
:20394000CDDD2AAD0BBD688D499D977EB66ED55EF44E133E322E511E700E9FFFBEEFDDDFF0
:20396000FCCF1BBF3AAF599F788F8891A981CAB1EBA10CD12DC14EF16FE18010A100C230F3
:20398000E3200450254046706760B9839893FBA3DAB33DC31CD37FE35EF3B1029012F32250
:2039A000D2323542145277625672EAB5CBA5A89589856EF54FE52CD50DC5E234C324A01410
:2039C00081046674476424540544DBA7FAB79987B8975FE77EF71DC73CD7D326F236910610
:2039E000B01657667676154634564CD96DC90EF92FE9C899E9898AB9ABA9445865480678C8
:203A00002768C018E1088238A3287DCB5CDB3FEB1EFBF98BD89BBBAB9ABB754A545A376A4F
:203A2000167AF10AD01AB32A923A2EFD0FED6CDD4DCDAABD8BADE89DC98D267C076C645C8F
:203A4000454CA23C832CE01CC10C1FEF3EFF5DCF7CDF9BAFBABFD98FF89F176E367E554E0F
:203A6000745E932EB23ED10EF01E0000000000000000000030313233343536373839414246
:203A80004344454640305800303132333435363738396162636465664030780004000008F6
:203AA0000000000000000002000100001030313233343536373839616263646566787000A9
:203AC000303132333435363738394142434445465850000002400000000000A000000000BA
:203AE00005400000000000C8000000000C4000000000409C00000000194000000020BCBE9E
:203B00000000000034400000BFC91B8E00000004B5400000504BCFD06607E2CF01000000AE
:203B20006C4100003E8251AADFEEA73401000000D9420000DCB5A0E23A301F97FFFFFFFF2A
:203B4000B4450000FD25A0C8E9A3C14FFFFFFFFFFF3F00000000008000000000FF3F00004E
:203B60000000008000000000B43C00080000002070000000C4010008243D00087000002077
:203B800070350000E00100081C00000043000000F8FFFFFF0C0000000E0000000F0000001A
:203BA0002E0000001001000043000000F8FFFFFF00404040404040404040414141414140C9
:203BC000404040404040404040404040404040404005020202020202020202020202020284
:203BE000022020202020202020202002020202020202909090909090101010101010101095
:203C0000101010101010101010101010020202020202888888888888080808080808080868
:203C20000808080808080808080808080202020240000000000000000000000000000000DC
:203C4000000000000000000000000000000000000000000000000000000000000000000064
:203C6000000000000000000000000000000000000000000000000000000000000000000044
:203C8000000000000000000000000000000000000000000000000000000000000000000024
:203CA000000000000000000000000000000000000000000000000000000000000000000004
:203CC0000000000000000000000000000000000000000000000000000000000000000000E4
:203CE000000000000102030401020304060708090000000000000000000000000000000092
:203D000000000000000000000000000000000000000000000000010800000000000000009A
:203D200000000000FFFFFFFFFFFFFFFFFFFFFFFFFFFFFFFFFFFFFFFFFFFFFFFFFFFFFFFF9F
:203D4000FFFFFFFFFFFFFFFFFFFFFFFFFFFFFFFFFFFFFFFFFFFFFFFFFFFFFFFFFFFFFFFF83
:203D6000FFFFFFFFFFFFFFFFFFFFFFFFFFFFFFFFFFFFFFFFFFFFFFFFFFFFFFFFFFFFFFFF63
:203D8000FFFFFFFFFFFFFFFFFFFFFFFFFFFFFFFFFFFFFFFFFFFFFFFFFFFFFFFFFFFFFFFF43
:203DA000FFFFFFFFFFFFFFFFFFFFFFFFFFFFFFFFFFFFFFFFFFFFFFFFFFFFFFFFFFFFFFFF23
:203DC000FFFFFFFFFFFFFFFFFFFFFFFFFFFFFFFFFFFFFFFFFFFFFFFFFFFFFFFFFFFFFFFF03
:203DE000FFFFFFFFFFFFFFFFFFFFFFFFFFFFFFFFFFFFFFFFFFFFFFFFFFFFFFFFFFFFFFFFE3
:203E0000FFFFFFFFFFFFFFFFFFFFFFFFFFFFFFFFFFFFFFFFFFFFFFFFFFFFFFFFFFFFFFFFC2
:203E2000FFFFFFFFFFFFFFFFFFFFFFFFFFFFFFFFFFFFFFFFFFFFFFFFFFFFFFFFFFFFFFFFA2
:203E4000FFFFFFFFFFFFFFFFFFFFFFFFFFFFFFFFFFFFFFFFFFFFFFFFFFFFFFFFFFFFFFFF82
:203E6000FFFFFFFFFFFFFFFFFFFFFFFFFFFFFFFFFFFFFFFFFFFFFFFFFFFFFFFFFFFFFFFF62
:203E8000FFFFFFFFFFFFFFFFFFFFFFFFFFFFFFFFFFFFFFFFFFFFFFFFFFFFFFFFFFFFFFFF42
:203EA000FFFFFFFFFFFFFFFFFFFFFFFFFFFFFFFFFFFFFFFFFFFFFFFFFFFFFFFFFFFFFFFF22
:203EC000FFFFFFFFFFFFFFFFFFFFFFFFFFFFFFFFFFFFFFFFFFFFFFFFFFFFFFFFFFFFFFFF02
:203EE000FFFFFFFFFFFFFFFFFFFFFFFFFFFFFFFFFFFFFFFFFFFFFFFFFFFFFFFFFFFFFFFFE2
:203F0000FFFFFFFFFFFFFFFFFFFFFFFFFFFFFFFFFFFFFFFFFFFFFFFFFFFFFFFFFFFFFFFFC1
:203F2000FFFFFFFFFFFFFFFFFFFFFFFFFFFFFFFFFFFFFFFFFFFFFFFFFFFFFFFFFFFFFFFFA1
:203F4000FFFFFFFFFFFFFFFFFFFFFFFFFFFFFFFFFFFFFFFFFFFFFFFFFFFFFFFFFFFFFFFF81
:203F6000FFFFFFFFFFFFFFFFFFFFFFFFFFFFFFFFFFFFFFFFFFFFFFFFFFFFFFFFFFFFFFFF61
:203F8000FFFFFFFFFFFFFFFFFFFFFFFFFFFFFFFFFFFFFFFFFFFFFFFFFFFFFFFFFFFFFFFF41
:203FA000FFFFFFFFFFFFFFFFFFFFFFFFFFFFFFFFFFFFFFFFFFFFFFFFFFFFFFFFFFFFFFFF21
:203FC000FFFFFFFFFFFFFFFFFFFFFFFFFFFFFFFFFFFFFFFFFFFFFFFFFFFFFFFFFFFFFFFF01
:203FE000FFFFFFFFFFFFFFFFFFFFFFFFFFFFFFFFFFFFFFFFFFFFFFFFFFFFFFFFFFFFFFFFE1
:204000001F40FDF702F902214DF22040FDF7FDF884214DF22140FDF7F8F802214DF22240BA
:20402000FDF7F3F8A4214DF22340FDF7EEF802214DF22440FDF7E9F8B7214DF22540FDF755
:20404000E4F802214DF22640FDF7DFF8CF214DF22740FDF7DAF802214DF22840FDF7D5F80A
:20406000DE214DF22940FDF7D0F802214DF22A40FDF7CBF8F2214DF22B40FDF7C6F80221C8
:204080004DF22C40FDF7C1F8FE214DF22D40FDF7BCF803214DF22E40FDF7B7F810214DF271
:2040A0002F40FDF7B2F803214DF23040FDF7ADF833214DF23140FDF7A8F803214DF232401A
:2040C000FDF7A3F86D214DF23340FDF79EF800214FF45540FDF799F833214DF20150FDF731
:2040E00094F800214DF20250FDF78FF834214DF20350FDF78AF800214DF20450FDF785F885
:204100003A214DF20550FDF780F800214DF20650FDF77BF84A214DF20750FDF776F80021A3
:204120004DF20850FDF771F85C214DF20950FDF76CF800214DF20A50FDF767F881214DF230
:204140000B50FDF762F800214DF20C50FDF75DF8A6214DF20D50FDF758F800214DF20E504C
:20416000FDF753F8E5214DF20F50FDF74EF801214DF21050FDF749F813214DF21150FDF764
:2041800044F801214DF21250FDF73FF854214DF21350FDF73AF801214DF21450FDF735F8D2
:2041A00082214DF21550FDF730F801214DF21650FDF72BF8CA214DF21750FDF726F80221F8
:2041C0004DF21850FDF721F800214DF21950FDF71CF802214DF21A50FDF717F801214DF22A
:2041E0001B50FDF712F802214DF21C50FDF70DF834214DF21D50FDF708F802214DF21E50CA
:20420000FDF703F867214DF21F50FCF7FEFF02214DF22050FCF7F9FF84214DF22150FCF784
:20422000F4FF02214DF22250FCF7EFFFA4214DF22350FCF7EAFF02214DF22450FCF7E5FFD6
:20424000B7214DF22550FCF7E0FF02214DF22650FCF7DBFFCF214DF22750FCF7D6FF0221CA
:204260004DF22850FCF7D1FFDE214DF22950FCF7CCFF02214DF22A50FCF7C7FFF2214DF268
:204280002B50FCF7C2FF02214DF22C50FCF7BDFFFE214DF22D50FCF7B8FF03214DF22E50FC
:2042A000FCF7B3FF10214DF22F50FCF7AEFF03214DF23050FCF7A9FF33214DF23150FCF745
:2042C000A4FF03214DF23250FCF79FFF6D214DF23350FCF79AFF00214FF45640FCF795FF68
:2042E00033214DF20160FCF790FF00214DF20260FCF78BFF34214DF20360FCF786FF002179
:204300004DF20460FCF781FF3A214DF20560FCF77CFF00214DF20660FCF777FF4A214DF241
:204320000760FCF772FF00214DF20860FCF76DFF5C214DF20960FCF768FF00214DF20A6042
:20434000FCF763FF81214DF20B60FCF75EFF00214DF20C60FCF759FFA6214DF20D60FCF7EF
:2043600054FF00214DF20E60FCF74FFFE5214DF20F60FCF74AFF01214DF21060FCF745FFE3
:2043800013214DF21160FCF740FF01214DF21260FCF73BFF54214DF21360FCF736FF012196
:2043A0004DF21460FCF731FF82214DF21560FCF72CFF01214DF21660FCF727FFCA214DF298
:2043C0001760FCF722FF02214DF21860FCF71DFF00214DF21960FCF718FF02214DF21A60AA
:2043E000FCF713FF01214DF21B60FCF70EFF02214DF21C60FCF709FF34214DF21D60FCF7FF
:2044000004FF02214DF21E60FCF7FFFE67214DF21F60FCF7FAFE02214DF22060FCF7F5FED0
:2044200084214DF22160FCF7F0FE02214DF22260FCF7EBFEA4214DF22360FCF7E6FE0221F5
:204440004DF22460FCF7E1FEB7214DF22560FCF7DCFE02214DF22660FCF7D7FECF214DF27F
:204460002760FCF7D2FE02214DF22860FCF7CDFEDE214DF22960FCF7C8FE02214DF22A60DE
:20448000FCF7C3FEF2214DF22B60FCF7BEFE02214DF22C60FCF7B9FEFE214DF22D60FCF766
:2044A000B4FE03214DF22E60FCF7AFFE10214DF22F60FCF7AAFE03214DF23060FCF7A5FE96
:2044C00033214DF23160FCF7A0FE03214DF23260FCF79BFE6D214DF23360FCF796FE552149
:2044E0004FF47040FCF791FEAA214FF20100FCF78CFE52214FF20200FCF787FE08214FF225
:204500000300FCF782FE00214FF20400FCF77DFECC214FF43140FCF778FE00214BF20110D8
:20452000FCF773FE05214FF43640FCF76EFE70214FF43740FCF769FE70214BF20170FCF702
:2045400064FE01214FF43840FCF75FFE03214BF60100FCF75AFE03214BF60200FCF755FE6E
:2045600003214BF60300FCF750FE02214FF43C40FCF74BFE00214BF60140FCF746FE002179
:204580004BF60240FCF741FED0214FF44940FCF73CFE02214CF60110FCF737FE50214CF62B
:2045A0000210FCF732FE50214CF60310FCF72DFE50214CF60410FCF728FE00214FF45450FA
:2045C000FCF723FE55214FF46850FCF71EFE4FF48850FCF7FFFD782004F058FE4FF42450A4
:2045E000FCF7F8FD01F05EB9FE48808849F2253188427DD147F6F001E520FCF706FE4FF467
:2046000080710120FCF701FE4FF4E0610220FCF7FCFD41F230010320FCF7F7FD0021042051
:20462000FCF7F3FD40F202210820FCF7EEFD00210920FCF7EAFD00210A20FCF7E6FD0021D6
:204640000C20FCF7E2FD00210D20FCF7DEFD00210F20FCF7DAFD00211020FCF7D6FD0721E7
:204660001120FCF7D2FD00211220FCF7CEFD00211320FCF7CAFD00210720FCF7C6FD41F2F7
:2046800090611020FCF7C1FD40F227211120FCF7BCFD9D211220FCF7B8FD4FF4C8511320CA
:2046A000FCF7B3FD25212920FCF7AFFD0D212B20FCF7ABFD07213020FCF7A7FD40F20331A0
:2046C0003120FCF7A2FD03213220FCF79EFD40F206213520FCF799FD08213620FCF795FDB8
:2046E00040F206413720FCF790FD4FF4417100E058E03820FCF789FD07213920FCF785FD96
:2047000040F202613C20FCF780FD08213D20FCF77CFD00215020FCF778FDEF215120FCF7D9
:2047200074FD00215220FCF770FD40F23F115320FCF76BFD4FF427416020FCF766FD012122
:204740006120FCF762FD00216A20FCF75EFD00218020FCF75AFD00218120FCF756FD002159
:204760008220FCF752FD00218320FCF74EFD00218420FCF74AFD00218520FCF746FD102127
:204780009020FCF742FD4FF4C0619220FCF73DFD40F233110720FCF738FD22210020FCF7D9
:2047A00034FD1FE78F48808849F2283188427DD141F28F01EC20FCF728FD41F23421EF20B9
:2047C000FCF723FD4FF480710120FCF71EFD4FF4E0610220FCF719FD41F230010320FCF73A
:2047E00014FD00210420FCF710FD40F202210820FCF70BFD00210920FCF707FD00210A205F
:20480000FCF703FD01210C20FCF7FFFC00210D20FCF7FBFC00210F20FCF7F7FC00211020AA
:20482000FCF7F3FC07211120FCF7EFFC00211220FCF7EBFC00211320FCF7E7FC01210720BF
:20484000FCF7E3FC322004F069FD41F290411020FCF7DBFC40F227211120FCF7D6FC32201A
:2048600004F05CFD8A211220FCF7CFFC322004F055FD4FF4D0511320FCF7C7FC06212920FB
:20488000FCF7C3FC0D212B20FCF7BFFC322004F045FD00212020FCF7B8FC00212120FCF75A
:2048A000B4FC322004F03AFD002100E075E03020FCF7ABFC40F204613120FCF7A6FC40F2DC
:2048C00005313220FCF7A1FC00213520FCF79DFC40F609413620FCF798FC4FF40171372055
:2048E000FCF793FC40F201313820FCF78EFC40F207713920FCF789FC00213C20FCF785FC91
:2049000040F60A213D20FCF780FC322004F006FD00215020FCF779FCEF215120FCF775FC43
:2049200000215220FCF771FC40F23F115320FCF76CFC4FF427416020FCF767FC0121612010
:20494000FCF763FC00216A20FCF75FFC00218020FCF75BFC00218120FCF757FC0021822036
:20496000FCF753FC00218320FCF74FFC00218420FCF74BFC00218520FCF747FC1021902017
:20498000FCF743FC4FF4C0619220FCF73EFC40F233110720FCF739FC24E61248808849F236
:2049A000203188427ED100210846FCF72EFC4FF480710120FCF729FC4FF4E0610220FCF7FB
:2049C00024FC41F230010320FCF71FFC00210420FCF71BFC40F202210820FCF716FC002130
:2049E000092001E0D80B0020FCF70FFC00210A20FCF70BFC01210C20FCF707FC00210D20D5
:204A0000FCF703FC00210F20FCF7FFFB322004F085FC40F201110720FCF7F7FB322004F00A
:204A20007DFC4FF486511020FCF7EFFB07211120FCF7EBFB4FF488711220FCF7E6FB4FF41F
:204A400030611320FCF7E1FB00212920FCF7DDFB44F210012B20FCF7D8FB00215020FCF7B2
:204A6000D4FBEF215120FCF7D0FB00215220FCF7CCFB40F23F115320FCF7C7FB4FF41C5181
:204A80006020FCF7C2FB01216120FCF7BEFB00216A20FCF7BAFB00218020FCF7B6FB0021BE
:204AA000812000E030E0FCF7B0FB00218220FCF7ACFB00218320FCF7A8FB00218420FCF758
:204AC000A4FB00218520FCF7A0FB10219020FCF79CFB00219220FCF798FB01219320FCF757
:204AE00094FB4FF488719520FCF78FFB00219720FCF78BFB00219820FCF787FB40F2731164
:204B00000720FCF782FB6DE5FE48808849F2313188427DD141F21401E720FCF776FB4FF4B3
:204B200080710120FCF771FB4FF400710220FCF76CFB41F238010320FCF767FB40F202219B
:204B40000820FCF762FB00210920FCF75EFB00210A20FCF75AFB00210C20FCF756FB002102
:204B60000D20FCF752FB00210F20FCF74EFB00211020FCF74AFB07211120FCF746FB002105
:204B80001220FCF742FB00211320FCF73EFBC82004F0C4FB41F290611020FCF736FB40F2EE
:204BA00027211120FCF731FB322004F0B7FB0C211220FCF72AFB322004F0B0FB4FF4006159
:204BC0001320FCF722FB11212920FCF71EFB0B212B20FCF71AFB322004F0A0FB002120204A
:204BE000FCF713FB40F23F112120FCF70EFB00213020FCF70AFB4FF483713120FCF705FB11
:204C000000213220FCF701FB4FF40171352000E064E0FCF7FAFA41F20A613620FCF7F5FA47
:204C200040F207713720FCF7F0FA4FF483713820FCF7EBFA40F207713920FCF7E6FA40F227
:204C400002413C20FCF7E1FA40F60F413D20FCF7DCFA00215020FCF7D8FAEF215120FCF771
:204C6000D4FA00215220FCF7D0FA40F23F115320FCF7CBFA4FF41C516020FCF7C6FA012164
:204C80006120FCF7C2FA00216A20FCF7BEFA00218020FCF7BAFA00218120FCF7B6FA0021A0
:204CA0008220FCF7B2FA00218320FCF7AEFA00218420FCF7AAFA00218520FCF7A6FA10216E
:204CC0009020FCF7A2FA4FF4C0619220FCF79DFA40F233110720FCF798FA83E48948808893
:204CE00045F2084188427DD14FF480710120FCF78CFA4FF4E0610220FCF787FA41F23001D0
:204D00000320FCF782FA00210420FCF77EFA40F207210820FCF779FA00210920FCF775FABD
:204D200000210A20FCF771FA00210C20FCF76DFA00210D20FCF769FA00210F20FCF765FADD
:204D4000142004F0EBFA41F2B0611020FCF75DFA01211120FCF759FA01211720FCF755FA54
:204D60004FF49C711220FCF750FA4FF400611320FCF74BFA09212920FCF747FA09212A204A
:204D8000FCF743FA0021A420FCF73FFA00215020FCF73BFAEF215120FCF737FA00215220E1
:204DA000FCF733FA40F23F115320FCF72EFA4FF41C516020FCF729FA01216120FCF725FAC8
:204DC00000216A20FCF721FA00218020FCF71DFA00218120FCF719FA00218220FCF715FAC2
:204DE000002100E024E08320FCF70FFA00218420FCF70BFA00218520FCF707FA13219020B4
:204E0000FCF703FA00219220FCF7FFF903219320FCF7FBF94FF488719520FCF7F6F940F221
:204E200073110720FCF7F1F9322004F077FAB8E43448808841F2055188427DD1002107202A
:204E4000FCF7E3F9322004F069FA4FF48E711220FCF7DBF90121A420FCF7D7F90F2108209E
:204E6000FCF7D3F908210A20FCF7CFF908210D20FCF7CBF940F207713020FCF7C6F9072184
:204E80003120FCF7C2F940F203613220FCF7BDF94FF4E0613320FCF7B8F940F2022134205E
:204EA000FCF7B3F902213520FCF7AFF941F60F713620FCF7AAF940F207713720FCF7A5F90B
:204EC00000213820FCF7A1F900213920FCF79DF940F207713A20FCF798F900213B20FCF7D2
:204EE00094F907213C20FCF790F900213D20FCF78CF9322004F012FA01210720FCF785F923
:204F0000012101E0D80B00201720FCF77EF9322004F004FA4FF4BD511020FCF776F940F291
:204F200017211120FCF771F94FF48F711220FCF76CF94FF4706100E098E01320FCF765F9EE
:204F400000212A20FCF761F90A212920FCF75DF94FF49F711220FCF758F900215020FCF78F
:204F600054F9EF215120FCF750F900215220FCF74CF940F23F115320FCF747F94FF41C5184
:204F80006020FCF742F901216120FCF73EF900216A20FCF73AF900218020FCF736F90021C1
:204FA0008120FCF732F900218220FCF72EF900218320FCF72AF900218420FCF726F9002183
:204FC0008520FCF722F913219020FCF71EF94FF440719220FCF719F905219320FCF715F9AB
:204FE00000219520FCF711F900219720FCF70DF900219820FCF709F94FF480710120FCF7F7
:2050000004F94FF4E0610220FCF7FFF841F238010320FCF7FAF800210420FCF7F6F8002148
:205020000C20FCF7F2F800210F20FCF7EEF800212020FCF7EAF800212120FCF7E6F8212193
:205040000720FCF7E2F8142004F068F961210720FCF7DBF8142004F061F940F27311072005
:20506000FCF7D3F8142004F059F995E4FE4880884BF2055188427CD100210846FCF7C5F868
:2050800000210846FCF7C1F800210846FCF7BDF800210846FCF7B9F80121A420FCF7B5F845
:2050A000142004F03BF94FF41C516020FCF7ADF840F202210820FCF7A8F84FF405713020B3
:2050C000FCF7A3F843F215713120FCF79EF840F204613220FCF799F840F616613320FCF74D
:2050E00094F842F211213420FCF78FF84FF4A8513520FCF78AF848F207513620FCF785F892
:2051000041F207413720FCF780F841F203413820FCF77BF820213920FCF777F81A21902036
:20512000FCF773F800211020FCF76FF807211120FCF76BF800211220FCF767F800211320BE
:20514000FCF763F8142004F0E9F84FF4E6611020FCF75BF840F237111120FCF756F81420D8
:2051600004F0DCF84FF4DC711220FCF74EF8142000E085E004F0D2F84FF470611320FCF7FB
:2051800044F880212A20FCF740F848212920FCF73CF8142004F0C2F84FF480710120FCF7BA
:2051A00034F84FF4E0610220FCF72FF841F238010320FCF72AF840F202210820FCF725F8D2
:2051C00000210A20FCF721F800210C20FCF71DF800210D20FCF719F830210E20FCF715F852
:2051E00000215020FCF711F8EF215120FCF70DF800215220FCF709F840F23F115320FCF73A
:2052000004F84FF41C516020FBF7FFFF01216120FBF7FBFF00216A20FBF7F7FF112190206E
:20522000FBF7F3FF4FF4C0619220FBF7EEFF40F202419320FBF7E9FF02219420FBF7E5FFE6
:20524000142004F06BF801210720FBF7DEFF142004F064F861210720FBF7D7FF40F2731100
:205260000720FBF7D2FF00212020FBF7CEFF00212120FBF7CAFF22210020FBF7C6FF11E3F9
:20528000794880884CF2055188427CD100210846FBF7BBFF00210846FBF7B7FF142004F040
:2052A0003DF800210846FBF7B0FF00210846FBF7ACFF00210846FBF7A8FF00210846FBF734
:2052C000A4FF0121A420FBF7A0FF142004F026F84FF41C516020FBF798FF40F60601082050
:2052E000FBF793FF40F203713020FBF78EFF01213120FBF78AFF04213220FBF786FF4FF496
:2053000081713320FBF781FF4FF440713420FBF77CFF40F203113520FBF777FF1F21362088
:20532000FBF773FF40F203713720FBF76EFF01213820FBF76AFF04213920FBF766FF1521CD
:205340009020FBF762FF4FF482611020FBF75DFF40F247211120FBF758FF4FF4DE711220CE
:20536000FBF753FF4FF460611320FBF74EFF782003F0D4FF4FF480710120FBF746FF4FF446
:205380000071022000E052E0FBF73FFF41F230010320FBF73AFF08210A20FBF736FF0021EB
:2053A0000C20FBF732FF20210E20FBF72EFF00210F20FBF72AFF00212020FBF726FF00210C
:2053C0002120FBF722FF3D212A20FBF71EFF142003F0A4FF2D212920FBF717FF00215020C8
:2053E000FBF713FF4DF2EF015120FBF70EFF00215220FBF70AFF40F23F115320FBF705FF91
:2054000000216120FBF701FF00216A20FBF7FDFE4FF440719220FBF7F8FE05219320FBF707
:20542000F4FE4FF480710720FBF7EFFE3AE20E48808844F2315188427ED101210020FBF7C1
:20544000E4FE0A2003F06AFF41F228611020FBF7DCFE0E211220FBF7D8FE40F63921132040
:20546000FBF7D3FE0A2001E0D80B002003F056FF40211120FBF7C9FE50211520FBF7C5FE6D
:205480000A2003F04BFF1E211220FBF7BEFE0A2003F044FF4FF4B1511020FBF7B6FE42F6D3
:2054A00039211320FBF7B1FE0A2003F037FF4FF480710120FBF7A9FE4FF440710220FBF775
:2054C000A4FE41F238010320FBF79FFE40F202210820FBF79AFE08210A20FBF796FE00210B
:2054E0003020FBF792FE40F202413120FBF78DFE4FF483713220FBF788FE40F203513320BD
:20550000FBF783FE4FF482713420FBF77EFE40F201313520FBF779FE40F207713620FBF70C
:2055200074FE40F205313720FBF76FFE4FF402713820FBF76AFE00E03EE040F60B7139206A
:20554000FBF763FE02214120FBF75FFE4FF41C516020FBF75AFE01216120FBF756FE4FF47F
:2055600004719020FBF751FE4FF485719220FBF74CFE04219320FBF748FE4FF48071A0209A
:20558000FBF743FE01210720FBF73FFE21210720FBF73BFE23210720FBF737FE33210720BF
:2055A000FBF733FE40F233110720FBF72EFE0021A020FBF72AFE75E1F748808844F23551B9
:2055C00088427CD130211520FBF71FFE10219A20FBF71BFE20211120FBF717FE43F2284112
:2055E0001020FBF712FE02211220FBF70EFE41F238011320FBF709FE282003F08FFE122193
:205600000846FBF702FE282003F088FE43F220411020FBF7FAFD43F238011320FBF7F5FD55
:20562000462003F07BFE00213020FBF7EEFD40F202413120FBF7E9FD40F207313220FBF7FE
:20564000E4FD4FF441713320FBF7DFFD04213420FBF7DBFD40F201413520FBF7D6FD40F250
:2056600007713620FBF7D1FD40F205313720FBF7CCFD4FF4C2613820FBF7C7FD4FF4C26148
:205680003920FBF7C2FD4FF480710120FBF7BDFD4FF440710220FBF7B8FD41F230010320BB
:2056A000FBF7B3FD40F608010820FBF7AEFD08210A20FBF7AAFD4FF41C51602000E033E035
:2056C000FBF7A3FD01216120FBF79FFD4FF49F719020FBF79AFD4FF480719220FBF795FD11
:2056E0004FF480719320FBF790FD4FF44051A020FBF78BFD1021A320FBF787FD0121072083
:20570000FBF783FD21210720FBF77FFD23210720FBF77BFD33210720FBF777FD40F2331114
:205720000720FBF772FDBDE09B48808841F663118842F8D1E220FBF74DFD1D20FBF753FD5E
:205740000220FBF750FD0420FBF74DFD642003F09DFDE020FBF73EFD0120FBF744FD0A20CC
:2057600003F0DCFDE020FBF735FD0320FBF73BFD0C2003F0D3FD0120FBF72CFD0A2003F0A4
:20578000CDFDE620FBF726FD2F20FBF72CFDFF20FBF729FDFF20FBF726FDB020FBF71AFD76
:2057A0002020FBF720FD0020FBF71DFD0320FBF71AFD40F21F30FBF716FD0120FBF713FD99
:2057C00040F2DF10FBF70FFD0020FBF70CFDB420FBF700FD0420FBF706FD40F21F40FBF730
:2057E00002FD0020FBF7FFFC2E20FBF7FCFC0020FBF7F9FC0020FBF7F6FC0020FBF7F3FC59
:205800000020FBF7F0FCB620FBF7E4FC0220FBF7EAFC4FF40370FBF7E6FC0020FBF7E3FC6D
:205820001720FBF7E0FC1520FBF7DDFC0020FBF7DAFC0020FBF7D7FCF020FBF7CBFC0320AA
:20584000FBF7D1FC2920FBF7C5FCD020FBF7C2FC0020FBF7C8FCBE20FBF7BCFC0520FBF778
:20586000C2FCFE20FBF7BFFC0120FBF7BCFC0020FBF7B9FC0020FBF7B6FC0020FBF7B3FC88
:20588000B820FBF7A7FC0320FBF7ADFC0120FBF7AAFCBA20FBF79EFC0120FBF7A4FC642087
:2058A000FCF70BF90020FCF734F901203B4908604FF6FF70FCF71CFB21B000BD2DE9FC4FF7
:2058C00005460E4617469846DDF82C90002001903148808846F60401884229D12E488079B7
:2058E000012825D1AB4635462B480088C01B401E86B2474628480088A0EB0B00401E1FFA1F
:2059000080F80020244988712A2048812B20888143463A4631462846CDF80090FFF7CEFF1C
:2059200001201D4988712B2048812A2088811DE0781B401C80B20190344615E0214628468D
:20594000FBF792FCFBF773FC4FF0000A07E04FF0D840A0F880900AF101001FFA80FA01980F
:205960008245F4DB601C84B24445E7DDBDE8FC8F2DE9F84F07460D4690469946DDF828B003
:20598000A8EB0700401C1FFA80FAA9EB0500401C80B20090002418E0D80B0020BC824042E8
:2059A000281981B23846FBF75FFCFBF740FC002607E004FB0A603BF81000F8490880701C6C
:2059C00086B25645F5DB601C84B200988442E7DBBDE8F88F2DE9FF4F84B081468A460020D7
:2059E000039002900698A0EB09050798A0EB0A06CDF80490CDF800A0002D01DD012705E03B
:205A00000DB9002702E04FF0FF376D42002E02DD4FF0010806E016B94FF0000802E04FF021
:205A2000FF387642B54201DD2C4600E034464FF0000B21E0009A91B2019A90B2FBF76DFF73
:205A40000398284403900298304402900398A04205DD0398001B0390019838440190029824
:205A6000A04205DD0298001B02900098404400900BF101001FFA80FB601C8345DADD08B02B
:205A8000BDE8F08FF0B504460D4616461F462B46324629462046FFF79DFF3B462246294637
:205AA0002046FFF797FF3B46324639462046FFF791FF3B46324629463046FFF78BFFF0BD85
:205AC0002DE9F04306460F469046002445460320A0EB48093CE07A1B91B2321990B2FBF7E5
:205AE0001CFF3A1B91B2721990B2FBF716FF3A1991B2721990B2FBF710FF7A1991B232199A
:205B000090B2FBF70AFF7A1991B2321B90B2FBF704FF3A1991B2721B90B2FBF7FEFE7A1B06
:205B200091B2321B90B2FBF7F8FE3A1B91B2721B90B2FBF7F2FE641CB9F1000F03DAA000AC
:205B4000801D814404E0601B80000A3081446D1EAC42C0DDBDE8F0832DE9F84F80460E4660
:205B600017461C46B3462046E31704EB5373DB1021464FEAE47C04EB5C7C4FEAEC0CA4EBE6
:205B8000CC0CBCF1000F02D04FF0010C01E04FF0000C6344224604EBD27C4FEA6C0C03FB2C
:205BA0000CF3DBB20093A7F12000C7B2002556E00C2C07D107EB4700794901EB800010F8BB
:205BC000059013E0102C05D1764800EB071010F805900BE0182C07D107EBC700724901EB67
:205BE000800010F8059001E0BDE8F88F4FF0000A2FE009F0800030B16C480288314640468E
:205C0000FBF799FE07E00A9828B96948028831464046FBF790FE4FEA49604FEA1069701CB9
:205C200086B264484088B04200DCDDE7A6EB0B00A0420AD15E4608F101001FFA80F85D48F9
:205C40000088404500DCCFE706E00AF1010000F0FF0ABAF1080FCCDB00BF681CC5B200980F
:205C60008542A5DB00BFBFE710B50246012000E050430B00A1F10104E1B2F9D110BD2DE9F5
:205C8000FF4F81B0074691461E460E9D4FF0000A002439E0301B401EC1B20A20FFF7E4FFAD
:205CA000B9FBF0F00A21B0FBF1F201FB1208BAF1000F16D1701EA04213DDB8F1000F0ED1E9
:205CC0000020AB4605EBDB71491001FB0471009088B22B4620220299FFF73EFF12E04FF031
:205CE000010A0020AB4605EBDB71491001FB0471009088B208F13001CAB22B460299FFF710
:205D00002BFF00BF601CC4B2B442C3DB05B0BDE8F08F2DE9FF4F82B0064692461F46DDE956
:205D20000F480020019000255CE0781B401EC1B20A20FFF799FFBAFBF0F00A21B0FBF1F290
:205D400001FB1209019840BB781EA84236DDB9F1000F31D108F0800078B108F00100A346C7
:205D600004EBDB71491001FB0561009088B2234630220399FFF7F0FE0EE008F00100A34658
:205D800004EBDB71491001FB0561009088B2234620220399FFF7E0FE22E00FE08000006C4B
:205DA00032C20108A6C6010896CC01082000002022000020D80B00200120019008F00100D6
:205DC000A34604EBDB71491001FB0561009088B209F13001CAB223460399FFF7BDFE00BFFE
:205DE000681CC5B2BD42A0DB06B0BDE8F08F2DE9F84704460D4690469946DDE9096704F083
:205E0000FF0A08EB04001FFA80F809EB05001FFA80F916E0444502DB5446A81985B24D45E6
:205E200000DB14E0002000903A78334629462046FFF792FE304606EBD07104EB61018CB226
:205E40007F1C38787E2802DC38782028E2DA00BFBDE8F8871CB50121172004F085FC00201D
:205E60008DF8040003208DF8050002208DF80700C00100906946FE4804F0D8F94FF4F4609C
:205E800000906946FB4804F0D1F9402000906946F94804F0CBF9042000906946F74804F094
:205EA000C5F91CBD1CB50121042004F05DFC00208DF8040003208DF8050001208DF80700E4
:205EC000000300906946EC4804F0B0F91CBD1CB50121084604F048FC01208DF80400032090
:205EE0008DF8050002208DF80700800300906946DF4804F09BF91CBD1CB50121084604F0EB
:205F000033FC01208DF8040003208DF8050002208DF80700800300906946D54804F086F9FB
:205F20000122D103D24804F001FA1CBD1CB50121084604F019FC01208DF8040003208DF8EC
:205F4000050002208DF80700800300906946C84804F06CF900224FF40041C54804F0E6F9DD
:205F60001CBD1CB50121082004F0FEFB00208DF8040003208DF8050001208DF807004020DD
:205F800000906946BE4804F051F90121084604F0EBFB00208DF8040003208DF805000120BD
:205FA0008DF80700000300906946B14804F03EF91CBD10B5044614B10120B2490870B148B5
:205FC0000078002837D01021AC4804F091F978B10821AA4804F08CF950B10421A74804F0B1
:205FE00087F928B10121A24804F082F9012822D10A2003F093F90020A249087010219F486D
:2060000004F076F908B9012010BD08219B4804F06FF908B90220F7E70421984804F068F9EB
:2060200008B90320F0E70121914804F061F901281BD10420E8E71021904804F059F90128DC
:2060400013D108218D4804F053F901280DD104218A4804F04DF9012807D10121844804F003
:2060600047F910B90120874908700020CCE72DE9F0414FF48051804804F03AF90546002D19
:206080003BD181480078012837D1142003F046F903F0ADF8C71706464FF48051764804F094
:2060A00027F9054679480468214679A014F080F91BE024B1611E0C46084612F09FF903F0CF
:2060C00096F8C117821B61EB0701764B00209A1A88410AD212F08DF86C48808940F00800B3
:2060E0006A4988810020FAF745FC4FF48051624804F0FEF80028DCD000BF63480570BDE892
:20610000F0812DE9F0414FF000084FF480515A4804F0EEF80746002F7DD1142003F0FEF809
:2061200003F065F860A014F043F94FF48051524804F0DEF8074603F05AF8C51704461CE0A3
:2061400003F055F8C117021B61EB0501584B00209A1A884104D20020FAF7C8FC4FF0010885
:2061600003F045F8C117021B61EB0501514B00209A1A884101D2BDE8F0814FF480513E48EC
:2061800004F0B6F80028DBD04BA014F011F903F02EF8C517044619E003F029F8C117021B50
:2061A00061EB0501424B00209A1A884102D20020FAF7E0FB03F01BF8C117021B61EB050156
:2061C000384B00209A1A884100D2D4E74FF48051294804F08DF8012802D1B8F1010FDBD0B4
:2061E00031A014F0E5F803F002F8C517044680E002F0FDFFC117021B61EB05012C4B0020AE
:206200009A1A884175D22148807A00F00100C0B91E48408900E075E040F001001B4948812B
:20622000002604E0701DFAF761FC701CC6B2042EF8DB23A014F0BCF84FF4FA6003F06EF8FF
:2062400015E0002604E0701CFAF750FC701CC6B2042EF8DB0D48408920F001000B49488121
:2062600019A014F0A5F84FF4FA6003F057F82FE000000240000402400008024000100240B2
:20628000000C02402400002025000020D8D601200D0A20B6C1BCC7C2BCBAC5A3BA25642024
:2062A0000000000080DE80020D0A20616E000000406F400100BD01050D0A20736F6E670057
:2062C0000D0A20D2ECB2E0000D0A20CDACB2E0000E210E4813F09EFD0C49C88110222E20B4
:2062E00013F01BFD0948418909A014F061F842E7FFE74FF480510B4803F0FAFF00283FF4A5
:2063000077AF00BF0848077000BF34E7D8D601200D0AC9E8D6C3CDA8B5C0C4A3CABD2025AA
:2063200064000000000802402600002010B5044600BF0221414805F0DDF80028F9D02146CD
:206340003E4805F08EF800BF01213C4805F0D2F80028F9D0394805F081F8C0B210BD00B544
:2063600087B00121084604F0FFF90121080304F055FA3820059002208DF8180000208DF8C9
:206380001A0003208DF8190001208DF81B0005A92B4803F04BFF05220321294803F0D1FF84
:2063A00005220421264803F0CCFF05221146244803F0C7FF0121080304F085FA00214FF4BE
:2063C000805004F080FA0020ADF800004FF48270ADF802000020ADF804000220ADF8060048
:2063E0000120ADF808004002ADF80A003820ADF80C000020ADF80E000720ADF81000694677
:206400000E4804F0B3FE01210C4804F0A9FFFF20FFF78CFF07B000BD10B504460748008875
:206420004FF6C77108400549088008460088204308800121014804F093FF10BD00300140D1
:20644000000402400020FE490860091D0860091D0860091D0860FA4924310860091D0860EF
:20646000091D0860F748F649383108600020091D0860704701460020012900D011B9F24B72
:20648000197000E0262070470146ED4A121D106820F0FF0008431060704770B5044606E09B
:2064A000E7483430056805F0450000B100E0F7E700BF042004F074FB20B1042004F07BFB8E
:2064C000032070BD012004F06BFB20B1012004F072FB0120F5E7DA4810300068A04201D024
:2064E0001020EEE740F2FF5004F065FBD4481430006808210840C0B2E3E72DE9FC410746AD
:206500000D46002600240020009001900820CF49086010204860402088600020C8604FF44A
:2065200080600861084604F0A8FA1020FFF7B5FF044614B12046BDE8FC81C5480088000424
:20654000C249086037204860402088600020C8604FF480600861084604F08FFA3720FFF795
:206560009CFF04460CB12046E5E74FF0FF30B949086008204860302088600220C8600020FD
:20658000086101204861084604F0A3FA0020AF49086033204860402088600020C8604FF49B
:2065A00080600861084604F068FA3320FFF775FF04460CB12046BEE70DE04FF4001004F0EB
:2065C000EFFA40B19E48803000684DF82600761C022E00D307E09A483430006840F22A6191
:2065E00008400028E9D000BF082004F0D9FA20B1082004F0E0FA04209DE7022004F0D0FA75
:2066000020B1022004F0D7FA022094E7202004F0C7FA20B1202004F0CEFA06208BE74FF488
:20662000007004F0BDFA28B14FF4007004F0C3FA072080E740F2FF5004F0BDFA00980006AA
:20664000009901F47F4140EA0120009901F47F0140EA1120009940EA11606860019800069D
:20666000019901F47F4140EA0120019901F47F0140EA1120019940EA1160286020465AE7B2
:206680007CB50546002400200090019000260DB1022600E000266A481430006800F0007049
:2066A00008B10E207CBD6A49098888B26946FFF724FF04460CB12046F4E7019800F48020FF
:2066C00060B36348008800046049086037204860402088600020C8604FF4806008610846F6
:2066E00004F0CBF93720FFF7D8FE04460CB12046D8E75648066006205449486040208860DC
:206700000020C8604FF480600861084604F0B5F90620FFF7C2FE04462046C3E72520C1E792
:2067200070B5044600254C480078032802D12725284670BD4848007838B1474800780128B3
:2067400003D045480078022819D1B4F5805F02D127252846EDE7E0B2FFF792FF054675B9D2
:206760003748001D006820F4C0503549091D086008460068204308600846006808602846D8
:20678000D7E710B504463148046007202F494860402088600020C8604FF48060086108469E
:2067A00004F06BF90720FFF778FE10BDF0B5014600200022284B1B7881F85630244B1B88DC
:2067C000A1F85430254B1B681A0E93090B70C2F383034B7002F003038B70204B1B68C3F3DD
:2067E0000742CA701D4B1B88C3F307220A711B4B1A784A715B681A0E1301CB80174B5B688F
:20680000C3F30742CB8843EA1213CB8002F00F030B72124B9B88C3F30722D3094B72C2F35B
:2068200080138B72C2F34013CB72C2F300130B7300234B73084B1B78C3B1074B1B780FE02E
:20684000002C0140FF07C00030000020000C00202C000020140C0020280000202C0C00205D
:20686000012B03D0FE4B1B78032B4FD193071B0D0B61FC4B1A790B6943EA82030B61F94B11
:206880009B681A0E0B6943EA92130B61C2F3C2030B7502F007034B75F24B9B68C3F3074226
:2068A00053098B75C2F38203CB7593075B0F0B76EC4B1B89C3F307220B7E43EAD2130B76A7
:2068C0000B695B1C0024C1E912340B7E9B1C012404FA03F3DC17D1E91256A5FB037C06FB2B
:2068E00003C305FB0433C1E912730C7A0123A3400B650024D1E912650B6DA6FB037C05FB82
:2069000003C306FB0433C1E912732EE0D44B1B78022B2AD1D34B1A7993069B0A0B61D14BEB
